{
  "contractName": "HealthRecord",
  "abi": [
    {
      "inputs": [],
      "payable": false,
      "stateMutability": "nonpayable",
      "type": "constructor"
    },
    {
      "constant": false,
      "inputs": [
        {
          "internalType": "string",
          "name": "inputHash",
          "type": "string"
        },
        {
          "internalType": "address",
          "name": "inputPatient",
          "type": "address"
        }
      ],
      "name": "uploadRecord",
      "outputs": [
        {
          "internalType": "bool",
          "name": "",
          "type": "bool"
        }
      ],
      "payable": false,
      "stateMutability": "nonpayable",
      "type": "function"
    },
    {
      "constant": true,
      "inputs": [],
      "name": "getRecordHash",
      "outputs": [
        {
          "internalType": "string",
          "name": "",
          "type": "string"
        }
      ],
      "payable": false,
      "stateMutability": "view",
      "type": "function"
    }
  ],
  "bytecode": "0x608060405234801561001057600080fd5b5061046d806100206000396000f3fe608060405234801561001057600080fd5b50600436106100365760003560e01c8063b01d10a41461003b578063d4d5baf1146100be575b600080fd5b6100436101b1565b6040518080602001828103825283818151815260200191508051906020019080838360005b83811015610083578082015181840152602081019050610068565b50505050905090810190601f1680156100b05780820380516001836020036101000a031916815260200191505b509250505060405180910390f35b610197600480360360408110156100d457600080fd5b81019080803590602001906401000000008111156100f157600080fd5b82018360208201111561010357600080fd5b8035906020019184600183028401116401000000008311171561012557600080fd5b91908080601f016020809104026020016040519081016040528093929190818152602001838380828437600081840152601f19601f820116905080830192505050505050509192919290803573ffffffffffffffffffffffffffffffffffffffff169060200190929190505050610315565b604051808215151515815260200191505060405180910390f35b60606000809054906101000a900473ffffffffffffffffffffffffffffffffffffffff1673ffffffffffffffffffffffffffffffffffffffff163373ffffffffffffffffffffffffffffffffffffffff1614610275576040517f08c379a00000000000000000000000000000000000000000000000000000000081526004018080602001828103825260108152602001807f496e76616c696420616464726573732e0000000000000000000000000000000081525060200191505060405180910390fd5b60018054600181600116156101000203166002900480601f01602080910402602001604051908101604052809291908181526020018280546001816001161561010002031660029004801561030b5780601f106102e05761010080835404028352916020019161030b565b820191906000526020600020905b8154815290600101906020018083116102ee57829003601f168201915b5050505050905090565b6000826001908051906020019061032d929190610393565b50816000806101000a81548173ffffffffffffffffffffffffffffffffffffffff021916908373ffffffffffffffffffffffffffffffffffffffff1602179055506000600260006101000a81548160ff0219169083151502179055506001905092915050565b828054600181600116156101000203166002900490600052602060002090601f016020900481019282601f106103d457805160ff1916838001178555610402565b82800160010185558215610402579182015b828111156104015782518255916020019190600101906103e6565b5b50905061040f9190610413565b5090565b61043591905b80821115610431576000816000905550600101610419565b5090565b9056fea265627a7a72315820ee4889b48ce130ccb5caa05b4956b5693e9a638a7db0f8e816dd5c9cb73a5d4b64736f6c63430005100032",
  "source": "// SPDX-License-Identifier: MIT\npragma solidity >=0.4.22 <0.8.0;\n\ncontract HealthRecord {\n  address private patient;\n  string private recordHash;\n  bool private seen;\n\n  constructor() public {}\n\n  function uploadRecord(  string memory inputHash, \n                          address inputPatient) \n                          public returns(bool) {\n    recordHash = inputHash;\n    patient = inputPatient;\n    seen = false;\n    return true;\n  }\n\n  function getRecordHash() public view returns (string memory) {\n    require(msg.sender == patient, \"Invalid address.\");\n    return recordHash;\n  }\n}",
  "sourcePath": "D:/GitHub/health-blockchain/truffle/contracts/HealthRecord.sol",
  "compiler": {
    "name": "solc",
    "version": "0.5.16+commit.9c3226ce.Emscripten.clang"
  },
  "schemaVersion": "3.3.2",
  "updatedAt": "2020-12-17T03:11:47.261Z",
  "networkType": "ethereum",
  "devdoc": {
    "methods": {}
  },
  "userdoc": {
    "methods": {}
  }
}